:020000040800F2
:10000000002800200D1500089D140008A314000806
:10001000A9140008AF140008B5140008000000007F
:10002000000000000000000000000000BB140008F9
:10003000C714000800000000D3140008DF140008F3
:1000400055150008551500085515000855150008E8
:1000500055150008551500085515000855150008D8
:1000600055150008551500085515000855150008C8
:1000700055150008551500085515000855150008B8
:1000800055150008551500085515000855150008A8
:100090005515000855150008551500085515000898
:1000A0005515000855150008551500085515000888
:1000B000ED14000855150008000000005515000853
:1000C000551500080000000000000000551500084C
:1000D000000000005515000855150008000000003C
:1000E00055150008551500085515000800000000BA
:1000F0000000000000000000000000000000000000
:0C01000000000000000000005FF808F1A3
:10010C0010B5054C237833B9044B13B10448AFF345
:10011C0000800123237010BD74000020000000003B
:10012C00A42B000808B5034B1BB103490348AFF3DC
:10013C00008008BD0000000078000020A42B0008FF
:10014C0080B483B000AF7860094A7B6852F82330E2
:10015C00012B06D1064A7B68002142F823100123AB
:10016C0000E0002318460C37BD4680BC704700BF2A
:10017C009000002080B483B000AF7860044A7B68A4
:10018C00012142F8231000BF0C37BD4680BC7047DC
:10019C009000002080B582B000AF00237B6076E039
:1001AC003F4A7B6852F823203E497B6841F8232064
:1001BC003D4A7B6852F8232039497B6841F823205B
:1001CC003A4A7B6852F8232039497B6831F813305E
:1001DC001946104601F0A6FC03461946324A7B68C4
:1001EC0042F823102E4A7B6852F823202E497B6854
:1001FC0051F823309A4247D1294A7B6852F8232080
:10020C0028497B6851F823309A423DD1254A7B68B6
:10021C0052F8232027497B6851F823309A4216D094
:10022C00204A7B6852F8232022497B6841F823201E
:10023C00204A7B6852F82330002B25D11E4A7B685C
:10024C00C82142F823107868FFF794FF1CE01A4A83
:10025C007B6852F823305A1E17497B6841F82320DB
:10026C00154A7B6852F82330002B0DD1124A7B685B
:10027C00C82142F823100C4A7B6852F82330002B1B
:10028C0002D17868FFF776FF7B6801337B607B686F
:10029C00022B85DD00BF00BF0837BD4680BD00BF07
:1002AC00200000202C00002014000020080000205A
:1002BC0000000020380000204400002080B500AF72
:1002CC00864B1B68013B042B00F2058201A252F8FD
:1002DC0023F000BFF50200084303000815040008D2
:1002EC000D0500080B0600087C4B02221A607C4BA3
:1002FC001A687C4B1B68D31A4FF47A7202FB03F317
:10030C000021184601F036F801214FF4FA7001F083
:10031C0031F80221642001F02DF803214FF47A709A
:10032C0001F028F86E4B1B686F4A13606F4B1B680B
:10033C006F4A1360D8E10021002000F005FE012176
:10034C00012000F001FE6B4B1B68012B10D1634B9D
:10035C0005221A60634B1B68654A1360614B1B686E
:10036C004FF47A7202FB03F30021184601F002F8F5
:10037C00604B5B68012B0CD15B4B1B685C4A1268B1
:10038C001146184600F0A4FD01214FF4FA7000F05C
:10039C00F1FF584B9B68012B16D10221642000F011
:1003AC00E9FF554B1B68184600F0F4FC524B1B68D8
:1003BC000133514A1360504B1A68504B1B689A42D8
:1003CC0002DB4D4B00221A604A4BDB68012B0ED12D
:1003DC00454B1B68013B444A1360454B1B68013B72
:1003EC00434A136003214FF47A7000F0C3FF0020DE
:1003FC00FFF7A6FE0346012B40F06F81374B062218
:10040C001A6000F035FE68E10121002000F09CFD2F
:10041C000021012000F098FD364B1B68012B10D1F8
:10042C00304B1B68304A13602C4B04221A602D4B46
:10043C001B684FF47A7202FB03F30021184600F09C
:10044C0099FF2C4B5B68012B0CD1274B1B68284A5E
:10045C0012681146184600F03BFD01214FF4FA706A
:10046C0000F088FF234B9B68012B16D102216420DE
:10047C0000F080FF204B1B68184600F08BFC1E4BD5
:10048C001B6801331C4A13601B4B1A681B4B1B68FF
:10049C009A4202DB184B00221A60164BDB68012BC8
:1004AC000ED1114B1B68013B0F4A1360104B1B689C
:1004BC00013B0F4A136003214FF47A7000F05AFF8E
:1004CC000020FFF73DFE0346012B40F00881034B53
:1004DC0006221A6000F0CCFD01E100BFA400002050
:1004EC005C000020640000209C00002060000020C4
:1004FC00A000002044010020B8000020BC2B000804
:10050C000221002000F020FD0021012000F01CFD44
:10051C00764B1B68012B17D1754B1B68754A136002
:10052C00754B1B68754A1360754B02221A60704B31
:10053C001A68744B1B68D31A4FF47A7202FB03F3DC
:10054C000021184600F016FF684B5B68012B0CD19C
:10055C00684B1B68694A12681146184600F0B8FCD3
:10056C0001214FF4FA7000F005FF604B9B68012BE2
:10057C0016D10221642000F0FDFE634B1B68184667
:10058C0000F008FC604B1B6801335F4A13605E4B44
:10059C001A685E4B1B689A4202DB5B4B00221A60A6
:1005AC00524BDB68012B1ED1524B1B68013B514A4D
:1005BC001360524B1B68013B504A13604D4B1B6838
:1005CC00002B03D14A4B1B684A4A13604B4B1B68E8
:1005DC00002B03D1484B1B68484A136003214FF48E
:1005EC007A7000F0C7FE0020FFF7AAFD0346012B2E
:1005FC0077D1434B06221A6000F03AFD71E00021DE
:10060C00002000F0A1FC0221012000F09DFC374BE2
:10061C001B68012B14D1384B1B68364A1360344BC2
:10062C001B68364A1360364B03221A60324B1B6828
:10063C004FF47A7202FB03F30021184600F09AFE85
:10064C002A4B5B68012B0CD12A4B1B682B4A126876
:10065C001146184600F03CFC01214FF4FA7000F0F2
:10066C0089FE224B9B68012B16D10221642000F0DD
:10067C0081FE254B1B68184600F08CFB224B1B6837
:10068C000133214A1360204B1A68204B1B689A4295
:10069C0002DB1D4B00221A60144BDB68012B0ED1C0
:1006AC00144B1B68013B134A1360144B1B68013B32
:1006BC00124A136003214FF47A7000F05BFE0020A5
:1006CC00FFF73EFD0346012B0DD10D4B06221A60A0
:1006DC0000F0CEFC07E000BF06E000BF04E000BF66
:1006EC0002E000BF00E000BF00BF80BD440100205D
:1006FC005C0000209C00002060000020A000002076
:10070C00A400002064000020B8000020BC2B0008CE
:10071C0080B400AF124B1A68124B1B681A44124B70
:10072C001B689A4218D00E4B1A680E4B1B681A4461
:10073C000D4B1B689A4207DA094B1A68094B1B6868
:10074C001344094A136008E0074B1A68054B1B68F1
:10075C00D31A034A136000E000BFBD4680BC70474B
:10076C0060000020640000205C00002080B500AF19
:10077C00A54B1B68063B032B00F23C8101A252F8EF
:10078C0023F000BFA1070008C30700088508000874
:10079C00410900089C4B07221A6001214FF4FA70A2
:1007AC0000F0E8FD0221642000F0E4FD0421FA20B1
:1007BC0000F0E0FD25E1954B5B68012B0AD1944BD1
:1007CC001B680221184600F083FB01214FF4FA70DC
:1007DC0000F0D0FD8D4B9B68012B16D102216420BB
:1007EC0000F0C8FD8B4B1B68184600F0D3FA894B00
:1007FC001B680133874A1360864B1A68864B1B684B
:10080C009A4202DB834B00221A60804BDB68012B7F
:10081C0005D100F053FC0321FA2000F0ABFD0020C1
:10082C00FFF78EFC0346012B08D1774B09221A6087
:10083C000221FA2000F09EFD00F01AFC0120FFF7C7
:10084C007FFC0346012B0BD1714B1B680133704AA3
:10085C0013606F4B1B68632B02DD6D4B01221A601A
:10086C000220FFF76DFC0346012B40F0C580684B5E
:10087C001B686A4A1360BFE0644B5B68012B0AD1AA
:10088C00674B1B680421184600F022FB01214FF432
:10089C00FA7000F06FFD5D4B9B68012B16D10221A5
:1008AC00642000F067FD5B4B1B68184600F072FA81
:1008BC00584B1B680133574A1360564B1A68564BFA
:1008CC001B689A4202DB534B00221A604F4BDB68C9
:1008DC00012B05D100F000FC0321FA2000F04AFDA9
:1008EC000020FFF72DFC0346012B06D1FFF710FF6C
:1008FC0000F0BEFB444B01221A600120FFF720FCE4
:10090C000346012B0BD1464B1B680133444A136041
:10091C00434B1B68632B02DD414B01221A60022002
:10092C00FFF70EFC0346012B68D13D4B1B683D4A7B
:10093C00136063E0354B5B68012B0AD13A4B1B68A3
:10094C000321184600F0C4FA01214FF4FA7000F0AC
:10095C0011FD2E4B9B68012B16D10221642000F057
:10096C0009FD2C4B1B68184600F014FA294B1B6828
:10097C000133284A1360274B1A68274B1B689A428D
:10098C0002DB244B00221A60204BDB68012B05D1C3
:10099C0000F0B2FB0321FA2000F0ECFC0020FFF782
:1009AC00CFFB0346012B08D1174B08221A600221FA
:1009BC00FA2000F0DFFC00F05BFB0120FFF7C0FB2E
:1009CC000346012B0BD1184B1B680133164A1360DD
:1009DC00154B1B68632B02DD134B01221A6002209E
:1009EC00FFF7AEFB0346012B0AD10F4B1B680F4AD6
:1009FC00136005E000BF04E000BF02E000BF00E0B0
:100A0C0000BF00BF80BD00BFA40000204401002037
:100A1C0050000020B8000020BC2B00085C00002017
:100A2C0054000020600000205800002064000020CA
:100A3C0080B582B000AF78607B68092B00F28081B2
:100A4C0001A252F823F000BF7D0A0008C50A000875
:100A5C000D0B0008550B00089D0B0008E50B00085A
:100A6C002D0C0008750C0008BD0C0008050D0008C5
:100A7C0000220121C64801F06CF800220221C44872
:100A8C0001F067F800220421C14801F062F800224D
:100A9C000821BF4801F05DF800221021BC4801F08C
:100AAC0058F800222021BA4801F053F801224021C5
:100ABC00B74801F04EF867E101220121B44801F07A
:100ACC0048F800220221B24801F043F80022042128
:100ADC00AF4801F03EF801220821AD4801F039F889
:100AEC0001221021AA4801F034F801222021A84843
:100AFC0001F02FF801224021A54801F02AF843E12A
:100B0C0000220121A24801F024F800220221A04871
:100B1C0001F01FF8012204219D4801F01AF800226F
:100B2C0008219B4801F015F800221021984801F08B
:100B3C0010F801222021964801F00BF800224021E8
:100B4C00934801F006F81FE100220121904801F0C2
:100B5C0000F8002202218E4800F0FBFF0022042145
:100B6C008B4800F0F6FF00220821894800F0F1FFC5
:100B7C0001221021864800F0ECFF0122202184483C
:100B8C0000F0E7FF00224021814800F0E2FFFBE08B
:100B9C00012201217E4800F0DCFF002202217C486A
:100BAC0000F0D7FF00220421794800F0D2FF012287
:100BBC000821774800F0CDFF01221021744800F085
:100BCC00C8FF00222021724800F0C3FF0022402100
:100BDC006F4800F0BEFFD7E0002201216C4800F006
:100BEC00B8FF012202216A4800F0B3FF0022042161
:100BFC00674800F0AEFF00220821654800F0A9FF0D
:100C0C0001221021624800F0A4FF0022202160483C
:100C1C0000F09FFF002240215D4800F09AFFB3E0F6
:100C2C00002201215A4800F094FF01220221584869
:100C3C0000F08FFF00220421554800F08AFF0022AB
:100C4C000821534800F085FF00221021504800F085
:100C5C0080FF002220214E4800F07BFF0022402123
:100C6C004B4800F076FF8FE000220121484800F04D
:100C7C0070FF00220221464800F06BFF0022042185
:100C8C00434800F066FF01220821414800F061FF53
:100C9C00012210213E4800F05CFF012220213C483B
:100CAC0000F057FF01224021394800F052FF6BE061
:100CBC0000220121364800F04CFF0022022134486A
:100CCC0000F047FF00220421314800F042FF0022CF
:100CDC0008212F4800F03DFF002210212C4800F085
:100CEC0038FF002220212A4800F033FF0022402147
:100CFC00274800F02EFF47E000220121244800F095
:100D0C0028FF00220221224800F023FF00220421A8
:100D1C001F4800F01EFF002208211D4800F019FF9B
:100D2C00012210211A4800F014FF0022202118483B
:100D3C0000F00FFF00224021154800F00AFF23E0CD
:100D4C0001220121124800F004FF01220221104867
:100D5C0000F0FFFE012204210D4800F0FAFE0122F2
:100D6C0008210B4800F0F5FE01221021084800F084
:100D7C00F0FE01222021064800F0EBFE012240216A
:100D8C00034800F0E6FE00BF00BF0837BD4680BD3B
:100D9C00000C014080B582B000AF78607B68032BFB
:100DAC0000F28C8001A252F823F000BFC90D00089C
:100DBC00090E0008490E0008890E000800224FF4A5
:100DCC008051414800F0C5FE01224FF400513E48CD
:100DDC0000F0BFFE01224FF480413B4800F0B9FE09
:100DEC0001224FF40041384800F0B3FE374A7B68CB
:100DFC0052F823301846FFF71BFE60E001224FF437
:100E0C008051314800F0A5FE00224FF400512E48CD
:100E1C0000F09FFE01224FF480412B4800F099FE18
:100E2C0001224FF40041284800F093FE274A7B68CA
:100E3C0052F823301846FFF7FBFD40E001224FF437
:100E4C008051214800F085FE01224FF400511E48CC
:100E5C0000F07FFE00224FF480411B4800F079FE29
:100E6C0001224FF40041184800F073FE174A7B68CA
:100E7C0052F823301846FFF7DBFD20E001224FF437
:100E8C008051114800F065FE01224FF400510E48CC
:100E9C0000F05FFE01224FF480410B4800F059FE38
:100EAC0000224FF40041084800F053FE074A7B68CB
:100EBC0052F823301846FFF7BBFD00E000BF00BF1F
:100ECC000837BD4680BD00BF00080140A8000020C7
:100EDC0080B483B000AF786039607B68184A82FBBD
:100EEC0003129210DB17D31A164A13607968144B4D
:100EFC0083FB01239A10CB17D21A13469B00134481
:100F0C005B00CA1A0F4B5A603B680D4A82FB0312F6
:100F1C009210DB17D31A0B4A93603968084B83FB8A
:100F2C0001239A10CB17D21A13469B0013445B0073
:100F3C00CA1A044BDA6000BF0C37BD4680BC704740
:100F4C0067666666A800002080B582B000AF786046
:100F5C0039607B68002B03D07B68012B3FD080E08D
:100F6C003B68022B29D03B68022B36DC3B68002BFC
:100F7C0003D03B68012B10D02FE0002208213B4806
:100F8C0000F0E7FD01222021384800F0E2FD0122AB
:100F9C001021364800F0DDFD20E001220821334805
:100FAC0000F0D7FD00222021304800F0D2FD0122B4
:100FBC0010212E4800F0CDFD10E0012208212B4815
:100FCC0000F0C7FD01222021284800F0C2FD0022BC
:100FDC001021264800F0BDFD00E000BF41E03B6859
:100FEC00022B2BD03B68022B39DC3B68002B03D047
:100FFC003B68012B11D032E0002240211B4800F04D
:10100C00A8FD01224FF48071184800F0A2FD0122C6
:10101C008021164800F09DFD22E00122402113485A
:10102C0000F097FD00224FF48071104800F091FD04
:10103C00012280210D4800F08CFD11E0012240219D
:10104C000A4800F086FD01224FF48071074800F039
:10105C0080FD00228021054800F07BFD00E000BFF0
:10106C0000BF00BF0837BD4680BD00BF000801406F
:10107C0080B500AF012208210F4800F06AFD012263
:10108C0020210D4800F065FD012210210A4800F0D6
:10109C0060FD01224021084800F05BFD01224FF465
:1010AC008071054800F055FD01228021024800F0B6
:1010BC0050FD00BF80BD00BF0008014080B500AFEF
:1010CC000821044800F05DFD4021024800F059FD64
:1010DC0000BF80BD0008014080B500AF202105484D
:1010EC0000F04FFD4FF48071024800F04AFD00BF44
:1010FC0080BD00BF0008014080B500AF102104483E
:10110C0000F03FFD8021024800F03BFD00BF80BD98
:10111C000008014080B500AF00F018FA00F014F898
:10112C0000F09AF800F04CF8054801F071F9054B05
:10113C0001221A60FFF7C2F8FFF718FBFAE700BFAD
:10114C00BC000020A400002080B590B000AF07F1D7
:10115C00180328220021184601F0F2FC3B1D002246
:10116C001A605A609A60DA601A610223BB6101232B
:10117C00BB621023FB6200237B6307F11803184644
:10118C0000F018FD0346002B01D000F0EEF80F2301
:10119C007B600023BB600023FB6000233B610023CA
:1011AC007B613B1D0021184600F086FF0346002B97
:1011BC0001D000F0DAF800BF4037BD4680BD00001A
:1011CC0080B586B000AF07F1080300221A605A60A0
:1011DC009A60DA603B4600221A605A601D4B4FF051
:1011EC0080421A601B4B41F63F725A60194B002229
:1011FC009A60184B0922DA60164B00221A61154BC3
:10120C0000229A61134801F0B3F80346002B01D079
:10121C0000F0ABF84FF48053BB6007F1080319469C
:10122C000C4801F049FA0346002B01D000F09DF860
:10123C0000233B6000237B603B461946054801F0C8
:10124C0015FC0346002B01D000F08FF800BF1837B7
:10125C00BD4680BDBC00002080B588B000AF07F152
:10126C00100300221A605A609A60DA602E4B9B6958
:10127C002D4A43F0100393612B4B9B6903F0100331
:10128C00FB60FB68284B9B69274A43F0040393617E
:10129C00254B9B6903F00403BB60BB68224B9B6925
:1012AC00214A43F0080393611F4B9B6903F0080329
:1012BC007B607B6800224FF2F8111C4800F049FC5F
:1012CC0000227F211A4800F044FC4FF460433B613C
:1012DC0000237B610123BB6107F1100319461548FC
:1012EC0000F0A4FA4FF2F8133B6101237B61002359
:1012FC00BB610223FB6107F1100319460B4800F098
:10130C0095FA7F233B6101237B610023BB610223A0
:10131C00FB6107F110031946054800F087FA00BF7E
:10132C002037BD4680BD00BF0010024000080140C0
:10133C00000C01400010014080B582B000AF786015
:10134C00002000F037F8012000F034F8022000F003
:10135C0031F8032000F02EF8042000F02BF8FEF7F3
:10136C0019FF00BF0837BD4680BD80B400AF72B610
:10137C0000BFFEE780B483B000AF786039607B6853
:10138C00094A82FB03129210DB17D21A07493B68F9
:10139C0041F82320064A3B68002142F8231000BF85
:1013AC000C37BD4680BC704767666666040100203A
:1013BC004401002080B483B000AF78600F4A7B6892
:1013CC0052F82330002B13DD0C4A7B6852F8233083
:1013DC005A1E0A497B6841F82320084A7B6852F858
:1013EC002330002B04DC064A7B68012142F82310D1
:1013FC0000BF0C37BD4680BC704700BF0401002005
:10140C004401002080B483B000AF0E4B9B690D4AA1
:10141C0043F0010393610B4B9B6903F001037B6069
:10142C007B68084BDB69074A43F08053D361054B5B
:10143C00DB6903F080533B603B6800BF0C37BD4653
:10144C0080BC70470010024080B584B000AF78605B
:10145C007B681B68B3F1804F13D10C4BDB690B4AD3
:10146C0043F00103D361094BDB6903F00103FB601B
:10147C00FB68002200211C2000F0A1F91C2000F0C8
:10148C00BAF900BF1037BD4680BD00BF0010024046
:10149C0080B400AFFEE780B400AFFEE780B400AFCD
:1014AC00FEE780B400AFFEE780B400AFFEE780B487
:1014BC0000AF00BFBD4680BC704780B400AF00BF1A
:1014CC00BD4680BC704780B400AF00BFBD4680BC39
:1014DC00704780B500AF00F07FF800BF80BD000002
:1014EC0080B500AF024800F0DFFF00BF80BD00BF39
:1014FC00BC00002080B400AF00BFBD4680BC70476C
:10150C00FFF7F8FF0B480C490C4A002302E0D458B3
:10151C00C4500433C4188C42F9D3094A094C002333
:10152C0001E013600432A242FBD301F011FBFFF780
:10153C00F1FD70470000002074000020EC2B000827
:10154C007400002088010020FEE7000080B500AF89
:10155C00084B1B68074A43F010031360032000F08C
:10156C0023F90F2000F008F8FFF74CFF0023184672
:10157C0080BD00BF0020024080B582B000AF786013
:10158C00124B1A68124B1B7819464FF47A73B3FB43
:10159C00F1F3B2FBF3F3184600F03BF90346002BD2
:1015AC0001D001230EE07B680F2B0AD8002279684A
:1015BC004FF0FF3000F003F9064A7B6813600023FC
:1015CC0000E0012318460837BD4680BD68000020A6
:1015DC00700000206C00002080B400AF054B1B781D
:1015EC001A46054B1B681344034A136000BFBD46E3
:1015FC0080BC7047700000208401002080B400AFD4
:10160C00024B1B681846BD4680BC70478401002005
:10161C0080B485B000AF78607B6803F00703FB6093
:10162C000C4BDB68BB60BA684FF6FF031340BB6022
:10163C00FB681A02BB68134343F0BF6343F40033E7
:10164C00BB60044ABB68D36000BF1437BD4680BC86
:10165C00704700BF00ED00E080B400AF044BDB68C6
:10166C001B0A03F007031846BD4680BC704700BF39
:10167C0000ED00E080B483B000AF0346FB7197F936
:10168C000730002B0BDBFB7903F01F02064997F99F
:10169C0007305B09012000FA02F241F8232000BF59
:1016AC000C37BD4680BC704700E100E080B483B0CD
:1016BC0000AF03463960FB7197F90730002B0ADB4A
:1016CC003B68DAB20C4997F907301201D2B20B44DD
:1016DC0083F800230AE03B68DAB20849FB7903F08F
:1016EC000F03043B1201D2B20B441A7600BF0C3725
:1016FC00BD4680BC704700BF00E100E000ED00E09B
:10170C0080B489B000AFF860B9607A60FB6803F010
:10171C000703FB61FB69C3F10703042B28BF0423F8
:10172C00BB61FB690433062B02D9FB69033B00E068
:10173C0000237B614FF0FF32BB6902FA03F3DA43FB
:10174C00BB681A407B699A404FF0FF317B6901FA04
:10175C0003F3D9437B680B40134318462437BD462B
:10176C0080BC704780B582B000AF78607B68013B6D
:10177C00B3F1807F01D301230FE00A4A7B68013B60
:10178C0053600F214FF0FF30FFF790FF054B002205
:10179C009A60044B07221A60002318460837BD468E
:1017AC0080BD00BF10E000E080B582B000AF786073
:1017BC007868FFF72DFF00BF0837BD4680BD80B5A8
:1017CC0086B000AF0346B9607A60FB7300237B617F
:1017DC00FFF742FF78617A68B9687869FFF790FF84
:1017EC00024697F90F3011461846FFF75FFF00BF0E
:1017FC001837BD4680BD80B582B000AF0346FB7183
:10180C0097F907301846FFF735FF00BF0837BD467C
:10181C0080BD80B582B000AF78607868FFF7A2FF1A
:10182C00034618460837BD4680BD000080B48BB017
:10183C0000AF7860396000237B6200233B6261E17A
:10184C0001227B6A02FA03F3FB613B681B68FA69AD
:10185C001340BB61BA69FB699A4240F050813B6806
:10186C005B68974A93425ED0954A934275D8954AE5
:10187C00934258D0934A93426FD8934A934252D092
:10188C00914A934269D8914A93424CD08F4A9342E1
:10189C0063D88F4A934246D08D4A93425DD8122B1F
:1018AC002AD8122B59D801A252F823F03319000868
:1018BC000D1900081F1900086119000867190008A4
:1018CC0067190008671900086719000867190008EC
:1018DC0067190008671900086719000867190008DC
:1018EC0067190008671900086719000867190008CC
:1018FC001519000829190008764A934213D02CE0D8
:10190C003B68DB683B6229E03B68DB6804333B6285
:10191C0024E03B68DB6808333B621FE03B68DB6814
:10192C000C333B621AE03B689B68002B02D104230A
:10193C003B6213E03B689B68012B05D108233B629B
:10194C007B68FA691A6109E008233B627B68FA69D3
:10195C005A6103E000233B6200E000BFBB69FF2B30
:10196C0001D87B6801E07B6804337B61BB69FF2B8A
:10197C0002D87B6A9B0002E07B6A083B9B003B61C0
:10198C007B691A680F213B6901FA03F3DB431A40A8
:10199C00396A3B6901FA03F31A437B691A603B68A5
:1019AC005B6803F08053002B00F0A9804A4B9B69C5
:1019BC00494A43F001039361474B9B6903F00103D0
:1019CC00BB60BB68454A7B6A9B08023352F82330E4
:1019DC00FB607B6A03F003039B000F2202FA03F304
:1019EC00DB43FA681340FB607B683D4A93420DD0A1
:1019FC007B683C4A934207D07B683B4A934201D1B7
:101A0C00022304E0032302E0012300E000237A6AAE
:101A1C0002F0030292009340FA681343FB602F49D3
:101A2C007B6A9B080233FA6841F823203B685B68A9
:101A3C0003F48013002B06D02C4B9A682B49BB69FE
:101A4C0013438B6006E0294B9A68BB69DB4327493B
:101A5C0013408B603B685B6803F40013002B06D0CB
:101A6C00224BDA682149BB691343CB6006E01F4B5C
:101A7C00DA68BB69DB431D491340CB603B685B688C
:101A8C0003F40033002B06D0184B5A681749BB6976
:101A9C0013434B6006E0154B5A68BB69DB43134993
:101AAC0013404B603B685B6803F48033002B1FD002
:101ABC000E4B1A680D49BB6913430B601FE000BF46
:101ACC000000321000003110000022100000211024
:101ADC000000121000001110001002400000014024
:101AEC0000080140000C01400010014000040140BE
:101AFC000B4B1A68BB69DB43094913400B607B6ACB
:101B0C0001337B623B681A687B6A22FA03F3002B71
:101B1C007FF496AE00BF00BF2C37BD4680BC70472B
:101B2C000004014080B485B000AF78600B467B8028
:101B3C007B689A687B881340002B02D00123FB73CF
:101B4C0001E00023FB73FB7B18461437BD4680BCB9
:101B5C00704780B483B000AF78600B467B8013462F
:101B6C007B707B78002B03D07A887B681A6103E04A
:101B7C007B881A047B681A6100BF0C37BD4680BC99
:101B8C00704780B485B000AF78600B467B807B6873
:101B9C00DB68FB607A88FB6813401A04FB68D94346
:101BAC007B880B401A437B681A6100BF1437BD4613
:101BBC0080BC704780B586B000AF78607B68002B26
:101BCC0001D1012372E27B681B6803F00103002B37
:101BDC0000F08780924B5B6803F00C03042B0CD055
:101BEC008F4B5B6803F00C03082B12D18C4B5B689A
:101BFC0003F48033B3F5803F0BD1894B1B6803F49E
:101C0C000033002B6CD07B685B68002B68D1012300
:101C1C004CE27B685B68B3F5803F06D1804B1B6858
:101C2C007F4A43F4803313602EE07B685B68002BA3
:101C3C000CD17B4B1B687A4A23F480331360784BAE
:101C4C001B68774A23F4802313601DE07B685B6874
:101C5C00B3F5A02F0CD1724B1B68714A43F480234F
:101C6C0013606F4B1B686E4A43F4803313600BE0B8
:101C7C006B4B1B686A4A23F480331360684B1B68F8
:101C8C00674A23F4802313607B685B68002B13D0B6
:101C9C00FFF7B4FC386108E0FFF7B0FC02463B6983
:101CAC00D31A642B01D9032300E25D4B1B6803F4A8
:101CBC000033002BF0D014E0FFF7A0FC386108E0F3
:101CCC00FFF79CFC02463B69D31A642B01D9032312
:101CDC00ECE1534B1B6803F40033002BF0D100E014
:101CEC0000BF7B681B6803F00203002B63D04C4BD6
:101CFC005B6803F00C03002B0BD0494B5B6803F0C3
:101D0C000C03082B1CD1464B5B6803F48033002B6F
:101D1C0016D1434B1B6803F00203002B05D07B68E4
:101D2C001B69012B01D00123C0E13D4B1B6823F043
:101D3C00F8027B685B69DB00394913430B603AE0BE
:101D4C007B681B69002B20D0364B01221A60FFF7F1
:101D5C0055FC386108E0FFF751FC02463B69D31A89
:101D6C00022B01D90323A1E12D4B1B6803F00203C5
:101D7C00002BF0D02A4B1B6823F0F8027B685B69C0
:101D8C00DB00274913430B6015E0264B00221A6039
:101D9C00FFF734FC386108E0FFF730FC02463B6982
:101DAC00D31A022B01D9032380E11D4B1B6803F0CE
:101DBC000203002BF0D17B681B6803F00803002B97
:101DCC003AD07B689B69002B19D0174B01221A6003
:101DDC00FFF714FC386108E0FFF710FC02463B6982
:101DEC00D31A022B01D9032360E10D4B5B6A03F07C
:101DFC000203002BF0D0012000F09CFA1CE00A4BEF
:101E0C0000221A60FFF7FAFB38610FE0FFF7F6FBD0
:101E1C0002463B69D31A022B08D9032346E100BFC3
:101E2C00001002400000424280044242924B5B6A26
:101E3C0003F00203002BE9D17B681B6803F0040359
:101E4C00002B00F0A6800023FB758B4BDB6903F0A5
:101E5C008053002B0DD1884BDB69874A43F08053AC
:101E6C00D361854BDB6903F08053BB60BB680123F6
:101E7C00FB75824B1B6803F48073002B18D17F4BCE
:101E8C001B687E4A43F480731360FFF7B7FB38611D
:101E9C0008E0FFF7B3FB02463B69D31A642B01D968
:101EAC00032303E1754B1B6803F48073002BF0D004
:101EBC007B68DB68012B06D16F4B1B6A6E4A43F0C3
:101ECC00010313622DE07B68DB68002B0CD16A4B9D
:101EDC001B6A694A23F001031362674B1B6A664A4B
:101EEC0023F0040313621CE07B68DB68052B0CD128
:101EFC00614B1B6A604A43F0040313625E4B1B6A1E
:101F0C005D4A43F0010313620BE05B4B1B6A5A4AB8
:101F1C0023F001031362584B1B6A574A23F0040346
:101F2C0013627B68DB68002B15D0FFF767FB386109
:101F3C000AE0FFF763FB02463B69D31A41F2883291
:101F4C00934201D90323B1E04B4B1B6A03F002030C
:101F5C00002BEED014E0FFF751FB38610AE0FFF7DD
:101F6C004DFB02463B69D31A41F28832934201D9A8
:101F7C0003239BE0404B1B6A03F00203002BEED1C2
:101F8C00FB7D012B05D13C4BDB693B4A23F0805395
:101F9C00D3617B68DB69002B00F08780364B5B6874
:101FAC0003F00C03082B61D07B68DB69022B46D154
:101FBC00334B00221A60FFF721FB386108E0FFF772
:101FCC001DFB02463B69D31A022B01D903236DE09A
:101FDC00294B1B6803F00073002BF0D17B681B6A44
:101FEC00B3F5803F08D1244B5B6823F400327B6847
:101FFC009B68214913434B601F4B5B6823F474129D
:10200C007B68196A7B685B6A0B431B4913434B6003
:10201C001B4B01221A60FFF7F1FA386108E0FFF759
:10202C00EDFA02463B69D31A022B01D903233DE09A
:10203C00114B1B6803F00073002BF0D035E0104BF4
:10204C0000221A60FFF7DAFA386108E0FFF7D6FAD7
:10205C0002463B69D31A022B01D9032326E0064B17
:10206C001B6803F00073002BF0D11EE07B68DB696A
:10207C00012B07D1012319E0001002400070004031
:10208C00600042420B4B5B68FB60FB6803F48032E0
:10209C007B681B6A9A4206D1FB6803F470127B685A
:1020AC005B6A9A4201D0012300E0002318461837DE
:1020BC00BD4680BD0010024080B584B000AF786092
:1020CC0039607B68002B01D10123D0E06A4B1B687F
:1020DC0003F007033A689A4210D9674B1B6823F048
:1020EC00070265493B6813430B60634B1B6803F0A5
:1020FC0007033A689A4201D00123B8E07B681B6859
:10210C0003F00203002B20D07B681B6803F0040350
:10211C00002B05D0594B5B68584A43F4E06353607D
:10212C007B681B6803F00803002B05D0534B5B68DE
:10213C00524A43F460535360504B5B6823F0F002F7
:10214C007B689B684D4913434B607B681B6803F0AD
:10215C000103002B40D07B685B68012B07D1474BF8
:10216C001B6803F40033002B15D101237FE07B683F
:10217C005B68022B07D1414B1B6803F00073002BEB
:10218C0009D1012373E03D4B1B6803F00203002BC4
:10219C0001D101236BE0394B5B6823F003027B68B0
:1021AC005B68364913434B60FFF728FAF8600AE086
:1021BC00FFF724FA0246FB68D31A41F288329342A5
:1021CC0001D9032353E02D4B5B6803F00C027B68B1
:1021DC005B689B009A42EBD1274B1B6803F007030B
:1021EC003A689A4210D2244B1B6823F0070222490A
:1021FC003B6813430B60204B1B6803F007033A68E2
:10220C009A4201D0012332E07B681B6803F004037F
:10221C00002B08D0194B5B6823F4E0627B68DB6809
:10222C00164913434B607B681B6803F00803002BB3
:10223C0009D0124B5B6823F460527B681B69DB008E
:10224C000E4913434B6000F021F802460B4B5B68C0
:10225C001B0903F00F030A49CB5C22FA03F3094A6A
:10226C001360094B1B681846FFF786F900231846C4
:10227C001037BD4680BD00BF002002400010024058
:10228C00C02B0008680000206C00002080B487B0D0
:10229C0000AF0023FB600023BB6000237B610023A5
:1022AC007B6000233B611E4B5B68FB60FB6803F0AB
:1022BC000C03042B02D0082B03D027E0194B3B61F5
:1022CC0027E0FB689B0C03F00F03174AD35C7B6081
:1022DC00FB6803F48033002B10D0114B5B685B0C54
:1022EC0003F00103114AD35CBB607B680D4A03FB0E
:1022FC0002F2BB68B2FBF3F37B6104E07B680C4A2F
:10230C0002FB03F37B617B693B6102E0054B3B61A4
:10231C0000BF3B6918461C37BD4680BC704700BFE8
:10232C000010024000127A00D02B0008E02B0008AD
:10233C0000093D0080B485B000AF78600A4B1B6883
:10234C000A4AA2FB03235B0A7A6802FB03F3FB60D5
:10235C0000BFFB685A1EFA60002BF9D100BF00BF0A
:10236C001437BD4680BC704768000020D34D621006
:10237C0080B582B000AF78607B68002B01D101235F
:10238C0041E07B6893F83D30DBB2002B06D17B68D3
:10239C00002283F83C207868FFF756F87B6802220D
:1023AC0083F83D207B681A687B6804331946104615
:1023BC0000F06EFA7B68012283F846207B680122CC
:1023CC0083F83E207B68012283F83F207B68012242
:1023DC0083F840207B68012283F841207B6801222E
:1023EC0083F842207B68012283F843207B6801221A
:1023FC0083F844207B68012283F845207B68012206
:10240C0083F83D20002318460837BD4680BD0000E8
:10241C0080B485B000AF78607B6893F83D30DBB258
:10242C00012B01D0012335E07B68022283F83D208B
:10243C007B681B68DA687B681B6842F00102DA6013
:10244C007B681B68164A934209D07B681B68B3F102
:10245C00804F04D07B681B68124A934211D17B6871
:10246C001B689B6803F00703FB60FB68062B10D00E
:10247C007B681B681A687B681B6842F001021A6053
:10248C0007E07B681B681A687B681B6842F00102D6
:10249C001A60002318461437BD4680BC704700BF35
:1024AC00002C01400004004080B582B000AF786081
:1024BC007B681B681B6903F00203022B22D17B682B
:1024CC001B68DB6803F00203022B1BD17B681B68C3
:1024DC006FF002021A617B6801221A777B681B6815
:1024EC009B6903F00303002B03D0786800F0B4F968
:1024FC0005E0786800F0A7F9786800F0B6F97B6819
:10250C0000221A777B681B681B6903F00403042BF9
:10251C0022D17B681B68DB6803F00403042B1BD1FE
:10252C007B681B686FF004021A617B6802221A77C1
:10253C007B681B689B6903F44073002B03D078689D
:10254C0000F08AF905E0786800F07DF9786800F011
:10255C008CF97B6800221A777B681B681B6903F077
:10256C000803082B22D17B681B68DB6803F0080387
:10257C00082B1BD17B681B686FF008021A617B6803
:10258C0004221A777B681B68DB6903F00303002BBA
:10259C0003D0786800F060F905E0786800F053F932
:1025AC00786800F062F97B6800221A777B681B68F8
:1025BC001B6903F01003102B22D17B681B68DB68AE
:1025CC0003F01003102B1BD17B681B686FF01002FB
:1025DC001A617B6808221A777B681B68DB6903F435
:1025EC004073002B03D0786800F036F905E078686A
:1025FC0000F029F9786800F038F97B6800221A7726
:10260C007B681B681B6903F00103012B0ED17B68EF
:10261C001B68DB6803F00103012B07D17B681B6887
:10262C006FF001021A617868FEF786FE7B681B6802
:10263C001B6903F08003802B0ED17B681B68DB6861
:10264C0003F08003802B07D17B681B686FF080023E
:10265C001A61786800F06BFA7B681B681B6903F0E1
:10266C004003402B0ED17B681B68DB6803F04003F2
:10267C00402B07D17B681B686FF040021A617868A9
:10268C0000F0FCF87B681B681B6903F02003202B0F
:10269C000ED17B681B68DB6803F02003202B07D16D
:1026AC007B681B686FF020021A61786800F036FABC
:1026BC0000BF0837BD4680BD80B584B000AF7860E0
:1026CC0039600023FB737B6893F83C30012B01D1FC
:1026DC000223B4E07B68012283F83C207B68022251
:1026EC0083F83D207B681B689B68BB60BB6823F04C
:1026FC007703BB60BB6823F47F43BB607B681B68BC
:10270C00BA689A603B681B68B3F5005F3ED0B3F5BE
:10271C00005F00F28780B3F5805F00F08680B3F530
:10272C00805F7FD8702B1AD0702B7BD8602B50D049
:10273C00602B77D8502B3CD0502B73D8402B58D0D3
:10274C00402B6FD8302B64D0302B6BD8202B60D023
:10275C00202B67D8002B5CD0102B5AD062E07B6802
:10276C0018683B6899683B685A683B68DB6800F0FE
:10277C005EF97B681B689B68BB60BB6843F07703A2
:10278C00BB607B681B68BA689A604FE07B6818680E
:10279C003B6899683B685A683B68DB6800F047F90E
:1027AC007B681B689A687B681B6842F480429A605D
:1027BC003CE07B6818683B6859683B68DB681A46E4
:1027CC0000F0BEF87B681B685021184600F015F924
:1027DC002CE07B6818683B6859683B68DB681A46D4
:1027EC0000F0DCF87B681B686021184600F005F9E6
:1027FC001CE07B6818683B6859683B68DB681A46C4
:10280C0000F09EF87B681B684021184600F0F5F834
:10281C000CE07B681A683B681B681946104600F090
:10282C00ECF803E00123FB7300E000BF7B6801229E
:10283C0083F83D207B68002283F83C20FB7B184604
:10284C001037BD4680BD80B483B000AF786000BF48
:10285C000C37BD4680BC704780B483B000AF786045
:10286C0000BF0C37BD4680BC704780B483B000AF4E
:10287C00786000BF0C37BD4680BC704780B483B015
:10288C0000AF786000BF0C37BD4680BC70470000BD
:10289C0080B485B000AF786039607B681B68FB60E2
:1028AC007B68254A934207D07B68B3F1804F03D0F5
:1028BC007B68224A934208D1FB6823F07003FB60CB
:1028CC003B685B68FA681343FB607B681A4A934267
:1028DC0007D07B68B3F1804F03D07B68174A9342D3
:1028EC0008D1FB6823F44073FB603B68DB68FA6833
:1028FC001343FB60FB6823F080023B685B69134366
:10290C00FB607B68FA681A603B689A687B68DA62DD
:10291C003B681A687B689A627B68074A934203D1CA
:10292C003B681A697B681A637B6801225A6100BF95
:10293C001437BD4680BC7047002C01400004004099
:10294C0080B487B000AFF860B9607A60FB681B6A2E
:10295C007B61FB681B6A23F00102FB681A62FB684F
:10296C009B693B613B6923F0F0033B617B681B0176
:10297C003A6913433B617B6923F00A037B617A69F3
:10298C00BB6813437B61FB683A699A61FB687A699F
:10299C001A6200BF1C37BD4680BC704780B487B03C
:1029AC0000AFF860B9607A60FB681B6A7B61FB68FA
:1029BC001B6A23F01002FB681A62FB689B693B617F
:1029CC003B6923F470433B617B681B033A691343F7
:1029DC003B617B6923F0A0037B61BB681B017A69B7
:1029EC0013437B61FB683A699A61FB687A691A62E6
:1029FC0000BF1C37BD4680BC704780B485B000AFAB
:102A0C00786039607B689B68FB60FB6823F070031F
:102A1C00FB603A68FB68134343F00703FB607B6879
:102A2C00FA689A6000BF1437BD4680BC704780B40A
:102A3C0087B000AFF860B9607A603B60FB689B6858
:102A4C007B617B6923F47F437B613B681A027B6863
:102A5C001A43BB6813437A6913437B61FB687A6939
:102A6C009A6000BF1C37BD4680BC704780B485B0EF
:102A7C0000AF786039607B6893F83C30012B01D152
:102A8C00022341E07B68012283F83C207B68022210
:102A9C0083F83D207B681B685B68FB607B681B6868
:102AAC009B68BB60FB6823F07003FB603B681B6892
:102ABC00FA681343FB607B681B68FA685A607B6892
:102ACC001B68144A934209D07B681B68B3F1804F92
:102ADC0004D07B681B68104A93420CD1BB6823F06E
:102AEC008003BB603B685B68BA681343BB607B6860
:102AFC001B68BA689A607B68012283F83D207B686A
:102B0C00002283F83C20002318461437BD4680BCB5
:102B1C00704700BF002C01400004004080B483B01B
:102B2C0000AF786000BF0C37BD4680BC704780B4E6
:102B3C0083B000AF786000BF0C37BD4680BC7047D7
:102B4C0003460244934200D1704703F8011BF9E796
:102B5C0070B500260C4D0D4C641BA410A64209D177
:102B6C0000F01AF800260A4D0A4C641BA410A64269
:102B7C0005D170BD55F8043B98470136EEE755F882
:102B8C00043B98470136F2E7E42B0008E42B0008DD
:102B9C00E42B0008E82B0008F8B500BFF8BC08BC13
:102BAC009E467047F8B500BFF8BC08BC9E467047FF
:102BBC0004000000000000000000000001020304FB
:102BCC000607080902030405060708090A0B0C0D81
:082BDC000E0F101001020000B1
:042BE40031010008B3
:042BE8000D010008D3
:102BEC000020004000800000001001400010014057
:102BFC000010014001000000000000000000000077
:102C0C0001000000000000000000000001000000B6
:102C1C0000000000000000000100000000000000A7
:102C2C0000000000F40100000000000000000000A3
:102C3C000100000001000000010000000500000080
:102C4C0003000000020000000024F400100000004B
:042C5C000100000073
:040000050800150DCD
:00000001FF
