:020000040800F2
:100000000028002025100008B50F0008BB0F0008CD
:10001000C10F0008C70F0008CD0F00080000000046
:10002000000000000000000000000000D30F0008E6
:10003000DF0F000800000000EB0F0008F70F0008BA
:100040006D1000086D1000086D1000086D1000089C
:100050006D1000086D1000086D1000086D1000088C
:100060006D1000086D1000086D1000086D1000087C
:100070006D1000086D1000086D1000086D1000086C
:100080006D1000086D1000086D1000086D1000085C
:100090006D1000086D1000086D1000086D1000084C
:1000A0006D1000086D1000086D1000086D1000083C
:1000B000051000086D100008000000006D10000819
:1000C0006D10000800000000000000006D10000826
:1000D000000000006D1000086D1000080000000016
:1000E0006D1000086D1000086D1000080000000081
:1000F0000000000000000000000000000000000000
:0C01000000000000000000005FF808F1A3
:10010C0010B5054C237833B9044B13B10448AFF345
:10011C0000800123237010BD54000020000000005B
:10012C008C26000808B5034B1BB103490348AFF3F9
:10013C00008008BD00000000580000208C2600083C
:10014C0080B483B000AF7860044A7B68012142F828
:10015C00231000BF0C37BD4680BC704770000020D8
:10016C0080B582B000AF00237B6064E0364A7B68C8
:10017C0052F8232035497B6841F82320344A7B68A8
:10018C0052F8232030497B6841F82320314A7B68A0
:10019C0032F813301946304801F050FA034619462C
:1001AC002B4A7B6842F82310274A7B6852F823209D
:1001BC0027497B6851F823309A4239D1224A7B680F
:1001CC0052F8232021497B6851F823309A422FD1D1
:1001DC001E4A7B6852F8232020497B6851F8233053
:1001EC009A4215D0194A7B6852F823201B497B6828
:1001FC0041F82320194A7B6852F82330002B17D181
:10020C00174B4FF4FA721A607868FFF799FF0FE0FA
:10021C00134B1B68013B124A1360114B1B68002BDC
:10022C0006D10F4B4FF4FA721A607868FFF788FF0B
:10023C007B6801337B607B68022B97DD00BF00BFBE
:10024C000837BD4680BD00BF1400002020000020F0
:10025C000800002000000020000801402C000020B5
:10026C003800002080B500AFA44B1B68013B042B69
:10027C0000F2B28101A252F823F000BF9D020008E7
:10028C00EB0200089D0300084F0400082D05000830
:10029C009A4B02221A60002140F6B83000F0F6FDAD
:1002AC0001214FF4FA7000F0F1FD0221642000F0FE
:1002BC00EDFD03214FF47A7000F0E8FD904B1B68C4
:1002CC00904A1360904B1B68904A13608D4B1B68CF
:1002DC008E4A12681146184600F0EAFB85E10021AF
:1002EC00002000F021FC0121012000F01DFC884BB6
:1002FC001B68012B0BD1814B05221A60854B1B68A7
:10030C00824A136000214FF4FA6000F0BFFD804B6D
:10031C005B68012B0CD17B4B1B687C4A1268114625
:10032C00184600F0C5FB01214FF4FA7000F0AEFD49
:10033C00774B9B68012B16D10221642000F0A6FD9F
:10034C00754B1B68184600F015FB734B1B6801338B
:10035C00714A1360704B1A68704B1B689A4202DB2F
:10036C006D4B00221A606A4BDB68012B40F0368122
:10037C00644B1B68013B634A1360644B1B68013B75
:10038C00624A136003214FF47A7000F07FFD25E17F
:10039C000121002000F0C8FB0021012000F0C4FB6B
:1003AC005B4B1B68012B0BD15A4B1B68554A1360D6
:1003BC00524B04221A6000214FF4FA6000F066FDE3
:1003CC00534B5B68012B0CD14E4B1B684F4A126888
:1003DC001146184600F06CFB01214FF4FA7000F046
:1003EC0055FD4B4B9B68012B16D10221642000F06C
:1003FC004DFD494B1B68184600F0BCFA464B1B6878
:10040C000133454A1360444B1A68444B1B689A42AB
:10041C0002DB414B00221A603D4BDB68012B40F0A4
:10042C00DF80384B1B68013B364A1360374B1B6827
:10043C00013B364A136003214FF47A7000F026FD1D
:10044C00CEE00221002000F06FFB0021012000F023
:10045C006BFB2F4B1B68012B0FD1294B1B68294AB7
:10046C001360294B1B68294A1360244B02221A6023
:10047C00002141F2883000F009FD254B5B68012B0F
:10048C000CD1204B1B68214A12681146184600F00B
:10049C000FFB01214FF4FA7000F0F8FC1C4B9B6829
:1004AC00012B16D10221642000F0F0FC1A4B1B68C2
:1004BC00184600F05FFA184B1B680133164A13609C
:1004CC00154B1A68154B1B689A4202DB124B002223
:1004DC001A600F4BDB68012B40F08480094B1B68C2
:1004EC00013B084A1360094B1B68013B074A136028
:1004FC0003214FF47A7000F0C9FC73E084000020F3
:10050C003C0000207C0000204000002080000020E7
:10051C00240100204400002098000020A42600089C
:10052C000021002000F000FB0221012000F0FCFA69
:10053C002F4B1B68012B0FD12E4B1B682E4A1360BF
:10054C002E4B1B682E4A13602E4B03221A6000217F
:10055C0040F6B83000F09AFC254B5B68012B0CD1AF
:10056C00254B1B68264A12681146184600F0A0FA63
:10057C0001214FF4FA7000F089FC1D4B9B68012B94
:10058C0016D10221642000F081FC1F4B1B68184619
:10059C0000F0F0F91C4B1B6801331B4A13601A4B1B
:1005AC001A681A4B1B689A4202DB174B00221A601E
:1005BC000F4BDB68012B17D10F4B1B68013B0E4A0D
:1005CC0013600F4B1B68013B0D4A136003214FF462
:1005DC007A7000F05BFC07E000BF06E000BF04E0AF
:1005EC0000BF02E000BF00E000BF00BF80BD00BF45
:1005FC0024010020400000207C0000203C00002052
:10060C00800000208400002098000020A426000810
:10061C0080B582B000AF78607B68092B00F28081D6
:10062C0001A252F823F000BF5D060008A5060008E1
:10063C00ED060008350700087D070008C50700080F
:10064C000D080008550800089D080008E50800087A
:10065C0000220121C64801F008F800220221C448FA
:10066C0001F003F800220421C14800F0FEFF002233
:10067C000821BF4800F0F9FF00221021BC4800F00F
:10068C00F4FF00222021BA4800F0EFFF01224021A4
:10069C00B74800F0EAFF67E101220121B44800F0FD
:1006AC00E4FF00220221B24800F0DFFF0022042107
:1006BC00AF4800F0DAFF01220821AD4800F0D5FF69
:1006CC0001221021AA4800F0D0FF01222021A848C5
:1006DC0000F0CBFF01224021A54800F0C6FF43E10A
:1006EC0000220121A24800F0C0FF00220221A048F4
:1006FC0000F0BBFF012204219D4800F0B6FF002250
:10070C0008219B4800F0B1FF00221021984800F00E
:10071C00ACFF01222021964800F0A7FF00224021C7
:10072C00934800F0A2FF1FE100220121904800F045
:10073C009CFF002202218E4800F097FF002204212A
:10074C008B4800F092FF00220821894800F08DFFB1
:10075C0001221021864800F088FF012220218448C4
:10076C0000F083FF00224021814800F07EFFFBE077
:10077C00012201217E4800F078FF002202217C48F2
:10078C0000F073FF00220421794800F06EFF012273
:10079C000821774800F069FF01221021744800F00D
:1007AC0064FF00222021724800F05FFF00224021EC
:1007BC006F4800F05AFFD7E0002201216C4800F08E
:1007CC0054FF012202216A4800F04FFF002204214D
:1007DC00674800F04AFF00220821654800F045FFF9
:1007EC0001221021624800F040FF002220216048C5
:1007FC0000F03BFF002240215D4800F036FFB3E0E3
:10080C00002201215A4800F030FF012202215848F1
:10081C0000F02BFF00220421554800F026FF002297
:10082C000821534800F021FF00221021504800F00D
:10083C001CFF002220214E4800F017FF002240210F
:10084C004B4800F012FF8FE000220121484800F0D5
:10085C000CFF00220221464800F007FF0022042171
:10086C00434800F002FF01220821414800F0FDFE40
:10087C00012210213E4800F0F8FE012220213C48C4
:10088C0000F0F3FE00224021394800F0EEFE6BE050
:10089C0000220121364800F0E8FE002202213448F3
:1008AC0000F0E3FE00220421314800F0DEFE0022BD
:1008BC0008212F4800F0D9FE002210212C4800F00E
:1008CC00D4FE002220212A4800F0CFFE0022402135
:1008DC00274800F0CAFE47E000220121244800F01E
:1008EC00C4FE00220221224800F0BFFE0022042197
:1008FC001F4800F0BAFE002208211D4800F0B5FE8A
:10090C00012210211A4800F0B0FE002220211848C4
:10091C0000F0ABFE00224021154800F0A6FE23E0BB
:10092C0001220121124800F0A0FE012202211048F0
:10093C0000F09BFE012204210D4800F096FE0122DE
:10094C0008210B4800F091FE01221021084800F00C
:10095C008CFE01222021064800F087FE0122402156
:10096C00034800F082FE00BF00BF0837BD4680BDC3
:10097C00000C014080B582B000AF78607B68032B1F
:10098C0000F28C8001A252F823F000BFA9090008E4
:10099C00E9090008290A0008690A000800224FF436
:1009AC008051414800F061FE01224FF400513E4855
:1009BC0000F05BFE01224FF480413B4800F055FEF5
:1009CC0001224FF40041384800F04FFE374A7B6853
:1009DC0052F823301846FFF71BFE60E001224FF45B
:1009EC008051314800F041FE00224FF400512E4856
:1009FC0000F03BFE01224FF480412B4800F035FE05
:100A0C0001224FF40041284800F02FFE274A7B6852
:100A1C0052F823301846FFF7FBFD40E001224FF45B
:100A2C008051214800F021FE01224FF400511E4854
:100A3C0000F01BFE00224FF480411B4800F015FE15
:100A4C0001224FF40041184800F00FFE174A7B6852
:100A5C0052F823301846FFF7DBFD20E001224FF45B
:100A6C008051114800F001FE01224FF400510E4854
:100A7C0000F0FBFD01224FF480410B4800F0F5FD26
:100A8C0000224FF40041084800F0EFFD074A7B6854
:100A9C0052F823301846FFF7BBFD00E000BF00BF43
:100AAC000837BD4680BD00BF00080140880000200B
:100ABC0080B483B000AF786039607B68184A82FBE1
:100ACC0003129210DB17D31A164A13607968144B71
:100ADC0083FB01239A10CB17D21A13469B001344A5
:100AEC005B00CA1A0F4B5A603B680D4A82FB03121B
:100AFC009210DB17D31A0B4A93603968084B83FBAF
:100B0C0001239A10CB17D21A13469B0013445B0097
:100B1C00CA1A044BDA6000BF0C37BD4680BC704764
:100B2C00676666668800002080B582B000AF78608A
:100B3C0039607B68002B03D07B68012B3FD080E0B1
:100B4C003B68022B29D03B68022B36DC3B68002B20
:100B5C0003D03B68012B10D02FE0002208213B482A
:100B6C0000F083FD01222021384800F07EFD012297
:100B7C001021364800F079FD20E00122082133488D
:100B8C0000F073FD00222021304800F06EFD0122A0
:100B9C0010212E4800F069FD10E0012208212B489D
:100BAC0000F063FD01222021284800F05EFD0022A8
:100BBC001021264800F059FD00E000BF41E03B68E1
:100BCC00022B2BD03B68022B39DC3B68002B03D06B
:100BDC003B68012B11D032E0002240211B4800F071
:100BEC0044FD01224FF48071184800F03EFD0122B3
:100BFC008021164800F039FD22E0012240211348E3
:100C0C0000F033FD00224FF48071104800F02DFDF0
:100C1C00012280210D4800F028FD11E00122402125
:100C2C000A4800F022FD01224FF48071074800F0C1
:100C3C001CFD00228021054800F017FD00E000BFDC
:100C4C0000BF00BF0837BD4680BD00BF0008014093
:100C5C0080B500AF00F006FA00F012F800F098F83A
:100C6C0000F04AF8044801F047F9044B01221A60DD
:100C7C00FFF7F8FAFCE700BF9C000020840000207E
:100C8C0080B590B000AF07F1180328220021184658
:100C9C0001F0CAFC3B1D00221A605A609A60DA60AF
:100CAC001A610223BB610123BB621023FB62002388
:100CBC007B6307F11803184600F0F0FC0346002B89
:100CCC0001D000F0DDF80F237B600023BB60002314
:100CDC00FB6000233B6100237B613B1D0021184618
:100CEC0000F05EFF0346002B01D000F0C9F800BFF6
:100CFC004037BD4680BD000080B586B000AF07F11F
:100D0C00080300221A605A609A60DA603B4600229F
:100D1C001A605A601D4B4FF080421A601B4B41F613
:100D2C003F725A60194B00229A60184B0922DA6004
:100D3C00164B00221A61154B00229A61134801F0E0
:100D4C008BF80346002B01D000F09AF84FF4805337
:100D5C00BB6007F1080319460C4801F021FA034661
:100D6C00002B01D000F08CF800233B6000237B604B
:100D7C003B461946054801F0EDFB0346002B01D01C
:100D8C0000F07EF800BF1837BD4680BD9C000020E7
:100D9C0080B586B000AF07F1080300221A605A60D4
:100DAC009A60DA60284B9B69274A43F004039361ED
:100DBC00254B9B6903F004037B607B68224B9B698A
:100DCC00214A43F0080393611F4B9B6903F008030E
:100DDC003B603B6800224FF2F8111C4800F045FCC8
:100DEC0000227F211A4800F040FC4FF2F813BB6040
:100DFC000123FB6000233B6102237B6107F10803A5
:100E0C001946124800F09EFA7F23BB600123FB6059
:100E1C0000233B6102237B6107F1080319460C4850
:100E2C0000F090FA4FF46063BB600023FB60012379
:100E3C003B6107F108031946044800F083FA00BF30
:100E4C001837BD4680BD00BF0010024000080140AD
:100E5C00000C014080B582B000AF7860002000F03B
:100E6C0035F8012000F032F8022000F02FF80320B2
:100E7C0000F02CF8FFF774F900BF0837BD4680BDB1
:100E8C0080B400AF72B600BFFEE7000080B483B040
:100E9C0000AF786039607B68094A82FB03129210BC
:100EAC00DB17D21A07493B6841F82320064A3B68F6
:100EBC00002142F8231000BF0C37BD4680BC7047A0
:100ECC0067666666E40000202401002080B483B0CD
:100EDC0000AF78600F4A7B6852F82330002B13DD8B
:100EEC000C4A7B6852F823305A1E0A497B6841F839
:100EFC002320084A7B6852F82330002B04DC064A76
:100F0C007B68012142F8231000BF0C37BD4680BC22
:100F1C00704700BFE40000202401002080B483B09F
:100F2C0000AF0E4B9B690D4A43F0010393610B4BD1
:100F3C009B6903F001037B607B68084BDB69074A04
:100F4C0043F08053D361054BDB6903F080533B6066
:100F5C003B6800BF0C37BD4680BC70470010024098
:100F6C0080B584B000AF78607B681B68B3F1804FAC
:100F7C0013D10C4BDB690B4A43F00103D361094BD2
:100F8C00DB6903F00103FB60FB68002200211C20DD
:100F9C0000F0A1F91C2000F0BAF900BF1037BD46D3
:100FAC0080BD00BF0010024080B400AFFEE780B4EB
:100FBC0000AFFEE780B400AFFEE780B400AFFEE701
:100FCC0080B400AFFEE780B400AF00BFBD4680BC6C
:100FDC00704780B400AF00BFBD4680BC704780B482
:100FEC0000AF00BFBD4680BC704780B500AF00F0BD
:100FFC007FF800BF80BD000080B500AF024800F054
:10100C00C7FF00BF80BD00BF9C00002080B400AFB4
:10101C0000BFBD4680BC7047FFF7F8FF0B480C497A
:10102C000C4A002302E0D458C4500433C4188C4238
:10103C00F9D3094A094C002301E013600432A2429F
:10104C00FBD301F0F9FAFFF703FE70470000002014
:10105C0054000020D4260008540000206801002011
:10106C00FEE7000080B500AF084B1B68074A43F051
:10107C0010031360032000F023F90F2000F008F890
:10108C00FFF74CFF0023184680BD00BF0020024034
:10109C0080B582B000AF7860124B1A68124B1B7887
:1010AC0019464FF47A73B3FBF1F3B2FBF3F3184622
:1010BC0000F03BF90346002B01D001230EE07B68C6
:1010CC000F2B0AD8002279684FF0FF3000F003F99B
:1010DC00064A7B681360002300E00123184608379A
:1010EC00BD4680BD48000020500000204C00002070
:1010FC0080B400AF054B1B781A46054B1B68134494
:10110C00034A136000BFBD4680BC704750000020EE
:10111C006401002080B400AF024B1B681846BD462A
:10112C0080BC70476401002080B485B000AF78604B
:10113C007B6803F00703FB600C4BDB68BB60BA6891
:10114C004FF6FF031340BB60FB681A02BB681343E6
:10115C0043F0BF6343F40033BB60044ABB68D36005
:10116C0000BF1437BD4680BC704700BF00ED00E0E7
:10117C0080B400AF044BDB681B0A03F0070318466E
:10118C00BD4680BC704700BF00ED00E080B483B06A
:10119C0000AF0346FB7197F90730002B0BDBFB7993
:1011AC0003F01F02064997F907305B09012000FA8A
:1011BC0002F241F8232000BF0C37BD4680BC7047BB
:1011CC0000E100E080B483B000AF03463960FB71EE
:1011DC0097F90730002B0ADB3B68DAB20C4997F918
:1011EC0007301201D2B20B4483F800230AE03B68AB
:1011FC00DAB20849FB7903F00F03043B1201D2B2B7
:10120C000B441A7600BF0C37BD4680BC704700BF3C
:10121C0000E100E000ED00E080B489B000AFF860C0
:10122C00B9607A60FB6803F00703FB61FB69C3F1EB
:10123C000703042B28BF0423BB61FB690433062B73
:10124C0002D9FB69033B00E000237B614FF0FF32C6
:10125C00BB6902FA03F3DA43BB681A407B699A4014
:10126C004FF0FF317B6901FA03F3D9437B680B40E4
:10127C00134318462437BD4680BC704780B582B0F6
:10128C0000AF78607B68013BB3F1807F01D3012311
:10129C000FE00A4A7B68013B53600F214FF0FF308F
:1012AC00FFF790FF054B00229A60044B07221A604F
:1012BC00002318460837BD4680BD00BF10E000E093
:1012CC0080B582B000AF78607868FFF72DFF00BF63
:1012DC000837BD4680BD80B586B000AF0346B96007
:1012EC007A60FB7300237B61FFF742FF78617A68B9
:1012FC00B9687869FFF790FF024697F90F301146ED
:10130C001846FFF75FFF00BF1837BD4680BD80B59C
:10131C0082B000AF0346FB7197F907301846FFF710
:10132C0035FF00BF0837BD4680BD80B582B000AF29
:10133C0078607868FFF7A2FF034618460837BD4669
:10134C0080BD000080B48BB000AF786039600023A2
:10135C007B6200233B6261E101227B6A02FA03F3A8
:10136C00FB613B681B68FA691340BB61BA69FB6996
:10137C009A4240F050813B685B68974A93425ED03A
:10138C00954A934275D8954A934258D0934A9342C2
:10139C006FD8934A934252D0914A934269D8914A5A
:1013AC0093424CD08F4A934263D88F4A934246D093
:1013BC008D4A93425DD8122B2AD8122B59D801A2F0
:1013CC0052F823F04B1400082514000837140008B9
:1013DC00791400087F1400087F1400087F1400089B
:1013EC007F1400087F1400087F1400087F14000885
:1013FC007F1400087F1400087F1400087F14000875
:10140C007F1400087F1400082D14000841140008F4
:10141C00764A934213D02CE03B68DB683B6229E0B0
:10142C003B68DB6804333B6224E03B68DB680833D1
:10143C003B621FE03B68DB680C333B621AE03B68A5
:10144C009B68002B02D104233B6213E03B689B6832
:10145C00012B05D108233B627B68FA691A6109E00C
:10146C0008233B627B68FA695A6103E000233B6204
:10147C0000E000BFBB69FF2B01D87B6801E07B68F3
:10148C0004337B61BB69FF2B02D87B6A9B0002E0B3
:10149C007B6A083B9B003B617B691A680F213B69A7
:1014AC0001FA03F3DB431A40396A3B6901FA03F38F
:1014BC001A437B691A603B685B6803F08053002B0E
:1014CC0000F0A9804A4B9B69494A43F001039361A0
:1014DC00474B9B6903F00103BB60BB68454A7B6AC1
:1014EC009B08023352F82330FB607B6A03F0030342
:1014FC009B000F2202FA03F3DB43FA681340FB60F4
:10150C007B683D4A93420DD07B683C4A934207D09E
:10151C007B683B4A934201D1022304E0032302E09F
:10152C00012300E000237A6A02F003029200934048
:10153C00FA681343FB602F497B6A9B080233FA68F5
:10154C0041F823203B685B6803F48013002B06D022
:10155C002C4B9A682B49BB6913438B6006E0294BD3
:10156C009A68BB69DB43274913408B603B685B6817
:10157C0003F40013002B06D0224BDA682149BB6917
:10158C001343CB6006E01F4BDA68BB69DB431D4994
:10159C001340CB603B685B6803F40033002B06D030
:1015AC00184B5A681749BB6913434B6006E0154B3F
:1015BC005A68BB69DB43134913404B603B685B685B
:1015CC0003F48033002B1FD00E4B1A680D49BB69F6
:1015DC0013430B601FE000BF0000321000003110FD
:1015EC000000221000002110000012100000111049
:1015FC00001002400000014000080140000C0140B6
:10160C0000100140000401400B4B1A68BB69DB431E
:10161C00094913400B607B6A01337B623B681A6893
:10162C007B6A22FA03F3002B7FF496AE00BF00BF57
:10163C002C37BD4680BC70470004014080B485B097
:10164C0000AF78600B467B807B689A687B88134080
:10165C00002B02D00123FB7301E00023FB73FB7B07
:10166C0018461437BD4680BC704780B483B000AFB9
:10167C0078600B467B8013467B707B78002B03D005
:10168C007A887B681A6103E07B881A047B681A618C
:10169C0000BF0C37BD4680BC7047000080B586B0DB
:1016AC0000AF78607B68002B01D1012372E27B686C
:1016BC001B6803F00103002B00F08780924B5B68E2
:1016CC0003F00C03042B0CD08F4B5B6803F00C0362
:1016DC00082B12D18C4B5B6803F48033B3F5803F3D
:1016EC000BD1894B1B6803F40033002B6CD07B6847
:1016FC005B68002B68D101234CE27B685B68B3F517
:10170C00803F06D1804B1B687F4A43F480331360C3
:10171C002EE07B685B68002B0CD17B4B1B687A4AF4
:10172C0023F480331360784B1B68774A23F48023AF
:10173C0013601DE07B685B68B3F5A02F0CD1724B76
:10174C001B68714A43F4802313606F4B1B686E4A0D
:10175C0043F4803313600BE06B4B1B686A4A23F431
:10176C0080331360684B1B68674A23F48023136033
:10177C007B685B68002B13D0FFF7CCFC386108E06A
:10178C00FFF7C8FC02463B69D31A642B01D903232B
:10179C0000E25D4B1B6803F40033002BF0D014E027
:1017AC00FFF7B8FC386108E0FFF7B4FC02463B6970
:1017BC00D31A642B01D90323ECE1534B1B6803F4BC
:1017CC000033002BF0D100E000BF7B681B6803F0F6
:1017DC000203002B63D04C4B5B6803F00C03002B13
:1017EC000BD0494B5B6803F00C03082B1CD1464B08
:1017FC005B6803F48033002B16D1434B1B6803F05A
:10180C000203002B05D07B681B69012B01D001233F
:10181C00C0E13D4B1B6823F0F8027B685B69DB0081
:10182C00394913430B603AE07B681B69002B20D0CD
:10183C00364B01221A60FFF76DFC386108E0FFF7A8
:10184C0069FC02463B69D31A022B01D90323A1E19F
:10185C002D4B1B6803F00203002BF0D02A4B1B68A6
:10186C0023F0F8027B685B69DB00274913430B60AC
:10187C0015E0264B00221A60FFF74CFC386108E09B
:10188C00FFF748FC02463B69D31A022B01D903230C
:10189C0080E11D4B1B6803F00203002BF0D17B6829
:1018AC001B6803F00803002B3AD07B689B69002B64
:1018BC0019D0174B01221A60FFF72CFC386108E095
:1018CC00FFF728FC02463B69D31A022B01D90323EC
:1018DC0060E10D4B5B6A03F00203002BF0D001209A
:1018EC0000F09CFA1CE00A4B00221A60FFF712FC75
:1018FC0038610FE0FFF70EFC02463B69D31A022B4E
:10190C0008D9032346E100BF001002400000424208
:10191C0080044242924B5B6A03F00203002BE9D134
:10192C007B681B6803F00403002B00F0A6800023E7
:10193C00FB758B4BDB6903F08053002B0DD1884B6F
:10194C00DB69874A43F08053D361854BDB6903F035
:10195C008053BB60BB680123FB75824B1B6803F48F
:10196C008073002B18D17F4B1B687E4A43F4807325
:10197C001360FFF7CFFB386108E0FFF7CBFB0246A3
:10198C003B69D31A642B01D9032303E1754B1B6804
:10199C0003F48073002BF0D07B68DB68012B06D13D
:1019AC006F4B1B6A6E4A43F0010313622DE07B6898
:1019BC00DB68002B0CD16A4B1B6A694A23F00103CC
:1019CC001362674B1B6A664A23F0040313621CE024
:1019DC007B68DB68052B0CD1614B1B6A604A43F0BA
:1019EC00040313625E4B1B6A5D4A43F001031362EE
:1019FC000BE05B4B1B6A5A4A23F001031362584BF2
:101A0C001B6A574A23F0040313627B68DB68002BC4
:101A1C0015D0FFF77FFB38610AE0FFF77BFB02462E
:101A2C003B69D31A41F28832934201D90323B1E0C6
:101A3C004B4B1B6A03F00203002BEED014E0FFF7B4
:101A4C0069FB38610AE0FFF765FB02463B69D31A74
:101A5C0041F28832934201D903239BE0404B1B6A2D
:101A6C0003F00203002BEED1FB7D012B05D13C4B87
:101A7C00DB693B4A23F08053D3617B68DB69002B25
:101A8C0000F08780364B5B6803F00C03082B61D0A9
:101A9C007B68DB69022B46D1334B00221A60FFF7BF
:101AAC0039FB386108E0FFF735FB02463B69D31A76
:101ABC00022B01D903236DE0294B1B6803F0007343
:101ACC00002BF0D17B681B6AB3F5803F08D1244B07
:101ADC005B6823F400327B689B68214913434B609D
:101AEC001F4B5B6823F474127B68196A7B685B6A12
:101AFC000B431B4913434B601B4B01221A60FFF72E
:101B0C0009FB386108E0FFF705FB02463B69D31A75
:101B1C00022B01D903233DE0114B1B6803F000732A
:101B2C00002BF0D035E0104B00221A60FFF7F2FAD0
:101B3C00386108E0FFF7EEFA02463B69D31A022B34
:101B4C0001D9032326E0064B1B6803F00073002B1E
:101B5C00F0D11EE07B68DB69012B07D1012319E072
:101B6C000010024000700040600042420B4B5B686A
:101B7C00FB60FB6803F480327B681B6A9A4206D1D7
:101B8C00FB6803F470127B685B6A9A4201D00123F4
:101B9C0000E0002318461837BD4680BD00100240F7
:101BAC0080B584B000AF786039607B68002B01D1C0
:101BBC000123D0E06A4B1B6803F007033A689A4292
:101BCC0010D9674B1B6823F0070265493B68134328
:101BDC000B60634B1B6803F007033A689A4201D011
:101BEC000123B8E07B681B6803F00203002B20D0B4
:101BFC007B681B6803F00403002B05D0594B5B6812
:101C0C00584A43F4E06353607B681B6803F0080395
:101C1C00002B05D0534B5B68524A43F4605353601E
:101C2C00504B5B6823F0F0027B689B684D49134373
:101C3C004B607B681B6803F00103002B40D07B6872
:101C4C005B68012B07D1474B1B6803F40033002B57
:101C5C0015D101237FE07B685B68022B07D1414BD8
:101C6C001B6803F00073002B09D1012373E03D4B7B
:101C7C001B6803F00203002B01D101236BE0394BED
:101C8C005B6823F003027B685B68364913434B6047
:101C9C00FFF740FAF8600AE0FFF73CFA0246FB68EF
:101CAC00D31A41F28832934201D9032353E02D4BCE
:101CBC005B6803F00C027B685B689B009A42EBD17B
:101CCC00274B1B6803F007033A689A4210D2244B47
:101CDC001B6823F0070222493B6813430B60204B1F
:101CEC001B6803F007033A689A4201D0012332E0E3
:101CFC007B681B6803F00403002B08D0194B5B684E
:101D0C0023F4E0627B68DB68164913434B607B6805
:101D1C001B6803F00803002B09D0124B5B6823F4FB
:101D2C0060527B681B69DB000E4913434B6000F06B
:101D3C0021F802460B4B5B681B0903F00F030A49A1
:101D4C00CB5C22FA03F3094A1360094B1B68184653
:101D5C00FFF79EF9002318461037BD4680BD00BF23
:101D6C000020024000100240A82600084800002075
:101D7C004C00002080B487B000AF0023FB60002330
:101D8C00BB6000237B6100237B6000233B611E4B07
:101D9C005B68FB60FB6803F00C03042B02D0082B80
:101DAC0003D027E0194B3B6127E0FB689B0C03F049
:101DBC000F03174AD35C7B60FB6803F48033002B62
:101DCC0010D0114B5B685B0C03F00103114AD35C20
:101DDC00BB607B680D4A03FB02F2BB68B2FBF3F3FA
:101DEC007B6104E07B680C4A02FB03F37B617B693B
:101DFC003B6102E0054B3B6100BF3B6918461C3759
:101E0C00BD4680BC704700BF0010024000127A0033
:101E1C00B8260008C826000800093D0080B485B02B
:101E2C0000AF78600A4B1B680A4AA2FB03235B0ACB
:101E3C007A6802FB03F3FB6000BFFB685A1EFA6072
:101E4C00002BF9D100BF00BF1437BD4680BC7047D2
:101E5C0048000020D34D621080B582B000AF78608E
:101E6C007B68002B01D1012341E07B6893F83D3066
:101E7C00DBB2002B06D17B68002283F83C2078680B
:101E8C00FFF76EF87B68022283F83D207B681A68A6
:101E9C007B6804331946104600F06EFA7B68012209
:101EAC0083F846207B68012283F83E207B68012260
:101EBC0083F83F207B68012283F840207B68012255
:101ECC0083F841207B68012283F842207B68012241
:101EDC0083F843207B68012283F844207B6801222D
:101EEC0083F845207B68012283F83D2000231846A7
:101EFC000837BD4680BD000080B485B000AF786067
:101F0C007B6893F83D30DBB2012B01D0012335E027
:101F1C007B68022283F83D207B681B68DA687B684B
:101F2C001B6842F00102DA607B681B68164A934218
:101F3C0009D07B681B68B3F1804F04D07B681B68A9
:101F4C00124A934211D17B681B689B6803F007030C
:101F5C00FB60FB68062B10D07B681B681A687B68DB
:101F6C001B6842F001021A6007E07B681B681A6864
:101F7C007B681B6842F001021A6000231846143774
:101F8C00BD4680BC704700BF002C014000040040DF
:101F9C0080B582B000AF78607B681B681B6903F06A
:101FAC000203022B22D17B681B68DB6803F002035F
:101FBC00022B1BD17B681B686FF002021A617B68D5
:101FCC0001221A777B681B689B6903F00303002BC3
:101FDC0003D0786800F0B4F905E0786800F0A7F950
:101FEC00786800F0B6F97B6800221A777B681B686A
:101FFC001B6903F00403042B22D17B681B68DB688C
:10200C0003F00403042B1BD17B681B686FF00402E4
:10201C001A617B6802221A777B681B689B6903F440
:10202C004073002B03D0786800F08AF905E07868DB
:10203C0000F07DF9786800F08CF97B6800221A7743
:10204C007B681B681B6903F00803082B22D17B6893
:10205C001B68DB6803F00803082B1BD17B681B682B
:10206C006FF008021A617B6804221A777B681B6880
:10207C00DB6903F00303002B03D0786800F060F9F0
:10208C0005E0786800F053F9786800F062F97B6835
:10209C0000221A777B681B681B6903F01003102B56
:1020AC0022D17B681B68DB6803F01003102B1BD15B
:1020BC007B681B686FF010021A617B6808221A7724
:1020CC007B681B68DB6903F44073002B03D07868D2
:1020DC0000F036F905E0786800F029F9786800F02E
:1020EC0038F97B6800221A777B681B681B6903F040
:1020FC000103012B0ED17B681B68DB6803F0010325
:10210C00012B07D17B681B686FF001021A6178689C
:10211C00FEF7A0FE7B681B681B6903F08003802B15
:10212C000ED17B681B68DB6803F08003802B07D122
:10213C007B681B686FF080021A61786800F06BFA9C
:10214C007B681B681B6903F04003402B0ED17B6836
:10215C001B68DB6803F04003402B07D17B681B68CE
:10216C006FF040021A61786800F0FCF87B681B681D
:10217C001B6903F02003202B0ED17B681B68DB68E6
:10218C0003F02003202B07D17B681B686FF0200223
:10219C001A61786800F036FA00BF0837BD4680BD7A
:1021AC0080B584B000AF786039600023FB737B6826
:1021BC0093F83C30012B01D10223B4E07B6801225F
:1021CC0083F83C207B68022283F83D207B681B68E7
:1021DC009B68BB60BB6823F07703BB60BB6823F4D0
:1021EC007F43BB607B681B68BA689A603B681B685E
:1021FC00B3F5005F3ED0B3F5005F00F28780B3F516
:10220C00805F00F08680B3F5805F7FD8702B1AD08A
:10221C00702B7BD8602B50D0602B77D8502B3CD0B8
:10222C00502B73D8402B58D0402B6FD8302B64D008
:10223C00302B6BD8202B60D0202B67D8002B5CD098
:10224C00102B5AD062E07B6818683B6899683B6831
:10225C005A683B68DB6800F05EF97B681B689B681A
:10226C00BB60BB6843F07703BB607B681B68BA68D4
:10227C009A604FE07B6818683B6899683B685A68BD
:10228C003B68DB6800F047F97B681B689A687B68E1
:10229C001B6842F480429A603CE07B6818683B689B
:1022AC0059683B68DB681A4600F0BEF87B681B680F
:1022BC005021184600F015F92CE07B6818683B6833
:1022CC0059683B68DB681A4600F0DCF87B681B68D1
:1022DC006021184600F005F91CE07B6818683B6823
:1022EC0059683B68DB681A4600F09EF87B681B68EF
:1022FC004021184600F0F5F80CE07B681A683B6842
:10230C001B681946104600F0ECF803E00123FB7340
:10231C0000E000BF7B68012283F83D207B6800222F
:10232C0083F83C20FB7B18461037BD4680BD80B43B
:10233C0083B000AF786000BF0C37BD4680BC7047DF
:10234C0080B483B000AF786000BF0C37BD4680BC52
:10235C00704780B483B000AF786000BF0C37BD46C7
:10236C0080BC704780B483B000AF786000BF0C377E
:10237C00BD4680BC7047000080B485B000AF78606B
:10238C0039607B681B68FB607B68254A934207D0E9
:10239C007B68B3F1804F03D07B68224A934208D10B
:1023AC00FB6823F07003FB603B685B68FA681343BF
:1023BC00FB607B681A4A934207D07B68B3F1804F6D
:1023CC0003D07B68174A934208D1FB6823F440730F
:1023DC00FB603B68DB68FA681343FB60FB6823F027
:1023EC0080023B685B691343FB607B68FA681A6088
:1023FC003B689A687B68DA623B681A687B689A6209
:10240C007B68074A934203D13B681A697B681A635D
:10241C007B6801225A6100BF1437BD4680BC7047EF
:10242C00002C01400004004080B487B000AFF8607D
:10243C00B9607A60FB681B6A7B61FB681B6A23F0DE
:10244C000102FB681A62FB689B693B613B6923F0E4
:10245C00F0033B617B681B013A6913433B617B6969
:10246C0023F00A037B617A69BB6813437B61FB68C9
:10247C003A699A61FB687A691A6200BF1C37BD46DB
:10248C0080BC704780B487B000AFF860B9607A60E8
:10249C00FB681B6A7B61FB681B6A23F01002FB68FC
:1024AC001A62FB689B693B613B6923F470433B6197
:1024BC007B681B033A6913433B617B6923F0A003E0
:1024CC007B61BB681B017A6913437B61FB683A69CA
:1024DC009A61FB687A691A6200BF1C37BD4680BCE2
:1024EC00704780B485B000AF786039607B689B68BA
:1024FC00FB60FB6823F07003FB603A68FB681343D6
:10250C0043F00703FB607B68FA689A6000BF1437DE
:10251C00BD4680BC704780B487B000AFF860B9602E
:10252C007A603B60FB689B687B617B6923F47F432B
:10253C007B613B681A027B681A43BB6813437A6958
:10254C0013437B61FB687A699A6000BF1C37BD46F8
:10255C0080BC704780B485B000AF786039607B6810
:10256C0093F83C30012B01D1022341E07B6801221E
:10257C0083F83C207B68022283F83D207B681B6833
:10258C005B68FB607B681B689B68BB60FB6823F027
:10259C007003FB603B681B68FA681343FB607B6845
:1025AC001B68FA685A607B681B68144A934209D00E
:1025BC007B681B68B3F1804F04D07B681B68104AA2
:1025CC0093420CD1BB6823F08003BB603B685B6813
:1025DC00BA681343BB607B681B68BA689A607B68F7
:1025EC00012283F83D207B68002283F83C200023E5
:1025FC0018461437BD4680BC704700BF002C014004
:10260C000004004080B483B000AF786000BF0C378A
:10261C00BD4680BC704780B483B000AF786000BF0B
:10262C000C37BD4680BC704703460244934200D130
:10263C00704703F8011BF9E770B500260C4D0D4CE3
:10264C00641BA410A64209D100F01AF800260A4D0A
:10265C000A4C641BA410A64205D170BD55F8043B6E
:10266C0098470136EEE755F8043B98470136F2E7F8
:10267C00CC260008CC260008CC260008D026000862
:10268C00F8B500BFF8BC08BC9E467047F8B500BF53
:08269C00F8BC08BC9E46704723
:1026A4000400000000000000000000000102030418
:1026B4000607080902030405060708090A0B0C0D9E
:0826C4000E0F101001020000CE
:0426CC0031010008D0
:0426D0000D010008F0
:1026D40000020004000800000100000000000000E7
:1026E40000000000010000000000000000000000E5
:1026F40001000000000000000000000001000000D4
:102704000000000000000000F401000005000000CB
:1027140003000000020000000024F4001000000088
:0427240001000000B0
:0400000508001025BA
:00000001FF
